{
  "_format": "hh3-artifact-1",
  "contractName": "MyPriceFeed",
  "sourceName": "contracts/MyPriceFeed.sol",
  "abi": [
    {
      "inputs": [
        {
          "internalType": "address",
          "name": "feed",
          "type": "address"
        }
      ],
      "name": "InvalidAggregator",
      "type": "error"
    },
    {
      "inputs": [
        {
          "internalType": "address",
          "name": "feed",
          "type": "address"
        }
      ],
      "name": "InvalidFeedAddress",
      "type": "error"
    },
    {
      "inputs": [
        {
          "internalType": "address[]",
          "name": "feeds",
          "type": "address[]"
        }
      ],
      "name": "getBatchDataFeed",
      "outputs": [
        {
          "internalType": "int256[]",
          "name": "answers",
          "type": "int256[]"
        },
        {
          "internalType": "uint8[]",
          "name": "decimals",
          "type": "uint8[]"
        }
      ],
      "stateMutability": "view",
      "type": "function"
    },
    {
      "inputs": [
        {
          "internalType": "address",
          "name": "tokenFeed",
          "type": "address"
        }
      ],
      "name": "getDataFeed",
      "outputs": [
        {
          "internalType": "int256",
          "name": "answer",
          "type": "int256"
        },
        {
          "internalType": "uint8",
          "name": "dec",
          "type": "uint8"
        }
      ],
      "stateMutability": "view",
      "type": "function"
    }
  ],
  "bytecode": "0x6080604052348015600e575f5ffd5b5061054a8061001c5f395ff3fe608060405234801561000f575f5ffd5b5060043610610034575f3560e01c8063344c833414610038578063fc97327014610067575b5f5ffd5b61004b61004636600461033f565b610088565b6040805192835260ff9091166020830152015b60405180910390f35b61007a61007536600461036c565b6101ee565b60405161005e9291906103dd565b5f806001600160a01b0383166100c1576040516327d4470760e21b81526001600160a01b03841660048201526024015b60405180910390fd5b826001600160a01b03163b5f036100f657604051635c8bf34d60e01b81526001600160a01b03841660048201526024016100b8565b5f839050806001600160a01b031663feaf968c6040518163ffffffff1660e01b815260040160a060405180830381865afa925050508015610154575060408051601f3d908101601f191682019092526101519181019061047e565b60015b61017c57604051635c8bf34d60e01b81526001600160a01b03851660048201526024016100b8565b5091955050505082816001600160a01b031663313ce5676040518163ffffffff1660e01b8152600401602060405180830381865afa1580156101c0573d5f5f3e3d5ffd5b505050506040513d601f19601f820116820180604052508101906101e491906104cc565b9250925050915091565b606080828061022f5760405162461bcd60e51b815260206004820152600d60248201526c139bc81c1c9a58d94819995959609a1b60448201526064016100b8565b8067ffffffffffffffff811115610248576102486104ec565b604051908082528060200260200182016040528015610271578160200160208202803683370190505b5092508067ffffffffffffffff81111561028d5761028d6104ec565b6040519080825280602002602001820160405280156102b6578160200160208202803683370190505b5091505f5b81811015610336576102ed8686838181106102d8576102d8610500565b9050602002016020810190610046919061033f565b8583815181106102ff576102ff610500565b6020026020010185848151811061031857610318610500565b60ff90931660209384029190910190920191909152526001016102bb565b50509250929050565b5f6020828403121561034f575f5ffd5b81356001600160a01b0381168114610365575f5ffd5b9392505050565b5f5f6020838503121561037d575f5ffd5b823567ffffffffffffffff811115610393575f5ffd5b8301601f810185136103a3575f5ffd5b803567ffffffffffffffff8111156103b9575f5ffd5b8560208260051b84010111156103cd575f5ffd5b6020919091019590945092505050565b604080825283519082018190525f9060208501906060840190835b818110156104165783518352602093840193909201916001016103f8565b5050838103602080860191909152855180835291810192508501905f5b8181101561045457825160ff16845260209384019390920191600101610433565b50919695505050505050565b805169ffffffffffffffffffff81168114610479575f5ffd5b919050565b5f5f5f5f5f60a08688031215610492575f5ffd5b61049b86610460565b602087015160408801516060890151929750909550935091506104c060808701610460565b90509295509295909350565b5f602082840312156104dc575f5ffd5b815160ff81168114610365575f5ffd5b634e487b7160e01b5f52604160045260245ffd5b634e487b7160e01b5f52603260045260245ffdfea26469706673582212204932351aadd8beb285aeaf98feb9ca9c96c52f87e3e91168324a02635725827f64736f6c634300081c0033",
  "linkReferences": {},
  "deployedLinkReferences": {},
  "immutableReferences": {},
  "inputSourceName": "project/contracts/MyPriceFeed.sol",
  "buildInfoId": "solc-0_8_28-ebcafa1712786a002a5c250af8b3b3da1dfddabe"
}