{
  "_format": "hh3-artifact-1",
  "contractName": "MyScan",
  "sourceName": "contracts/MyScan.sol",
  "abi": [
    {
      "inputs": [
        {
          "internalType": "contract MyPriceFeed",
          "name": "_priceFeed",
          "type": "address"
        }
      ],
      "stateMutability": "nonpayable",
      "type": "constructor"
    },
    {
      "anonymous": false,
      "inputs": [
        {
          "indexed": true,
          "internalType": "address",
          "name": "payer",
          "type": "address"
        },
        {
          "indexed": true,
          "internalType": "address",
          "name": "payee",
          "type": "address"
        },
        {
          "indexed": true,
          "internalType": "address",
          "name": "asset",
          "type": "address"
        },
        {
          "indexed": false,
          "internalType": "uint256",
          "name": "amount",
          "type": "uint256"
        },
        {
          "indexed": false,
          "internalType": "string",
          "name": "memo",
          "type": "string"
        },
        {
          "indexed": false,
          "internalType": "address",
          "name": "feed",
          "type": "address"
        },
        {
          "indexed": false,
          "internalType": "int256",
          "name": "price",
          "type": "int256"
        },
        {
          "indexed": false,
          "internalType": "uint8",
          "name": "priceDecimals",
          "type": "uint8"
        },
        {
          "indexed": false,
          "internalType": "uint256",
          "name": "updatedAt",
          "type": "uint256"
        }
      ],
      "name": "PaymentStamped",
      "type": "event"
    },
    {
      "inputs": [],
      "name": "priceFeed",
      "outputs": [
        {
          "internalType": "contract MyPriceFeed",
          "name": "",
          "type": "address"
        }
      ],
      "stateMutability": "view",
      "type": "function"
    },
    {
      "inputs": [
        {
          "internalType": "address",
          "name": "to",
          "type": "address"
        },
        {
          "internalType": "address",
          "name": "feed",
          "type": "address"
        },
        {
          "internalType": "string",
          "name": "memo",
          "type": "string"
        }
      ],
      "name": "sendEth",
      "outputs": [],
      "stateMutability": "payable",
      "type": "function"
    },
    {
      "inputs": [
        {
          "internalType": "address",
          "name": "token",
          "type": "address"
        },
        {
          "internalType": "address",
          "name": "to",
          "type": "address"
        },
        {
          "internalType": "uint256",
          "name": "amount",
          "type": "uint256"
        },
        {
          "internalType": "address",
          "name": "feed",
          "type": "address"
        },
        {
          "internalType": "string",
          "name": "memo",
          "type": "string"
        }
      ],
      "name": "transferERC20",
      "outputs": [],
      "stateMutability": "nonpayable",
      "type": "function"
    }
  ],
  "bytecode": "0x60a0604052348015600e575f5ffd5b506040516107b23803806107b2833981016040819052602b91603b565b6001600160a01b03166080526066565b5f60208284031215604a575f5ffd5b81516001600160a01b0381168114605f575f5ffd5b9392505050565b60805161072761008b5f395f8181604801528181610160015261037601526107275ff3fe608060405260043610610033575f3560e01c8063741bef1a14610037578063c995a8f014610086578063d560dfac1461009b575b5f5ffd5b348015610042575f5ffd5b5061006a7f000000000000000000000000000000000000000000000000000000000000000081565b6040516001600160a01b03909116815260200160405180910390f35b610099610094366004610562565b6100ba565b005b3480156100a6575f5ffd5b506100996100b53660046105bf565b6102c1565b6001600160a01b0384166101005760405162461bcd60e51b81526020600482015260086024820152672130b21030b2323960c11b60448201526064015b60405180910390fd5b5f341161013d5760405162461bcd60e51b815260206004820152600b60248201526a139bc8195d1a081cd95b9d60aa1b60448201526064016100f7565b604051630d1320cd60e21b81526001600160a01b0384811660048301525f9182917f0000000000000000000000000000000000000000000000000000000000000000169063344c8334906024016040805180830381865afa1580156101a4573d5f5f3e3d5ffd5b505050506040513d601f19601f820116820180604052508101906101c89190610639565b915091505f866001600160a01b0316346040515f6040518083038185875af1925050503d805f8114610215576040519150601f19603f3d011682016040523d82523d5f602084013e61021a565b606091505b50509050806102575760405162461bcd60e51b8152602060048201526009602482015268151e0819985a5b195960ba1b60448201526064016100f7565b5f6001600160a01b0316876001600160a01b0316336001600160a01b03167f797748fbacb803d56b1db8e53002f3a4b6940fb744bda3032340a5b1d3c872063489898c8a8a426040516102b0979695949392919061066c565b60405180910390a450505050505050565b6001600160a01b038616158015906102e157506001600160a01b03851615155b6103185760405162461bcd60e51b81526020600482015260086024820152672130b21030b2323960c11b60448201526064016100f7565b5f84116103535760405162461bcd60e51b81526020600482015260096024820152681b9bc8185b5bdd5b9d60ba1b60448201526064016100f7565b604051630d1320cd60e21b81526001600160a01b0384811660048301525f9182917f0000000000000000000000000000000000000000000000000000000000000000169063344c8334906024016040805180830381865afa1580156103ba573d5f5f3e3d5ffd5b505050506040513d601f19601f820116820180604052508101906103de9190610639565b6040516323b872dd60e01b81523360048201526001600160a01b038a81166024830152604482018a9052929450909250908916906323b872dd906064016020604051808303815f875af1158015610437573d5f5f3e3d5ffd5b505050506040513d601f19601f8201168201806040525081019061045b91906106cb565b6104975760405162461bcd60e51b815260206004820152600d60248201526c151c985b9cd9995c8819985a5b609a1b60448201526064016100f7565b876001600160a01b0316876001600160a01b0316336001600160a01b03167f797748fbacb803d56b1db8e53002f3a4b6940fb744bda3032340a5b1d3c872068988888b8989426040516104f0979695949392919061066c565b60405180910390a45050505050505050565b80356001600160a01b0381168114610518575f5ffd5b919050565b5f5f83601f84011261052d575f5ffd5b50813567ffffffffffffffff811115610544575f5ffd5b60208301915083602082850101111561055b575f5ffd5b9250929050565b5f5f5f5f60608587031215610575575f5ffd5b61057e85610502565b935061058c60208601610502565b9250604085013567ffffffffffffffff8111156105a7575f5ffd5b6105b38782880161051d565b95989497509550505050565b5f5f5f5f5f5f60a087890312156105d4575f5ffd5b6105dd87610502565b95506105eb60208801610502565b94506040870135935061060060608801610502565b9250608087013567ffffffffffffffff81111561061b575f5ffd5b61062789828a0161051d565b979a9699509497509295939492505050565b5f5f6040838503121561064a575f5ffd5b82519150602083015160ff81168114610661575f5ffd5b809150509250929050565b87815260c060208201528560c0820152858760e08301375f60e08783018101919091526001600160a01b03959095166040820152606081019390935260ff91909116608083015260a0820152601f909201601f19169091010192915050565b5f602082840312156106db575f5ffd5b815180151581146106ea575f5ffd5b939250505056fea2646970667358221220b2ea696f9c95f377b6fb651db3112492eabd1745115e5949cf23f1e502cdb3d964736f6c634300081c0033",
  "linkReferences": {},
  "deployedLinkReferences": {},
  "immutableReferences": {
    "214": [
      {
        "length": 32,
        "start": 72
      },
      {
        "length": 32,
        "start": 352
      },
      {
        "length": 32,
        "start": 886
      }
    ]
  },
  "inputSourceName": "project/contracts/MyScan.sol",
  "buildInfoId": "solc-0_8_28-bba16a39e6914d903d3be9513b8b30481f723cae"
}