{
  "_format": "hh3-artifact-1",
  "contractName": "SimpleFeedKeeper",
  "sourceName": "contracts/SimpleFeedKeeper.sol",
  "abi": [
    {
      "inputs": [
        {
          "internalType": "address[]",
          "name": "_feeds",
          "type": "address[]"
        },
        {
          "internalType": "uint32",
          "name": "_maxStalenessSeconds",
          "type": "uint32"
        },
        {
          "internalType": "uint32",
          "name": "_intervalSeconds",
          "type": "uint32"
        },
        {
          "internalType": "bool",
          "name": "_cadenceMode",
          "type": "bool"
        }
      ],
      "stateMutability": "nonpayable",
      "type": "constructor"
    },
    {
      "anonymous": false,
      "inputs": [
        {
          "indexed": true,
          "internalType": "address",
          "name": "feed",
          "type": "address"
        },
        {
          "indexed": false,
          "internalType": "string",
          "name": "reason",
          "type": "string"
        },
        {
          "indexed": false,
          "internalType": "uint256",
          "name": "updatedAt",
          "type": "uint256"
        }
      ],
      "name": "Alert",
      "type": "event"
    },
    {
      "anonymous": false,
      "inputs": [
        {
          "indexed": true,
          "internalType": "uint256",
          "name": "runId",
          "type": "uint256"
        },
        {
          "indexed": false,
          "internalType": "uint256",
          "name": "indexChecked",
          "type": "uint256"
        }
      ],
      "name": "Tick",
      "type": "event"
    },
    {
      "inputs": [],
      "name": "cadenceMode",
      "outputs": [
        {
          "internalType": "bool",
          "name": "",
          "type": "bool"
        }
      ],
      "stateMutability": "view",
      "type": "function"
    },
    {
      "inputs": [
        {
          "internalType": "bytes",
          "name": "",
          "type": "bytes"
        }
      ],
      "name": "checkUpkeep",
      "outputs": [
        {
          "internalType": "bool",
          "name": "upkeepNeeded",
          "type": "bool"
        },
        {
          "internalType": "bytes",
          "name": "performData",
          "type": "bytes"
        }
      ],
      "stateMutability": "view",
      "type": "function"
    },
    {
      "inputs": [],
      "name": "cursor",
      "outputs": [
        {
          "internalType": "uint256",
          "name": "",
          "type": "uint256"
        }
      ],
      "stateMutability": "view",
      "type": "function"
    },
    {
      "inputs": [
        {
          "internalType": "uint256",
          "name": "",
          "type": "uint256"
        }
      ],
      "name": "feeds",
      "outputs": [
        {
          "internalType": "address",
          "name": "",
          "type": "address"
        }
      ],
      "stateMutability": "view",
      "type": "function"
    },
    {
      "inputs": [],
      "name": "interval",
      "outputs": [
        {
          "internalType": "uint32",
          "name": "",
          "type": "uint32"
        }
      ],
      "stateMutability": "view",
      "type": "function"
    },
    {
      "inputs": [],
      "name": "lastTick",
      "outputs": [
        {
          "internalType": "uint256",
          "name": "",
          "type": "uint256"
        }
      ],
      "stateMutability": "view",
      "type": "function"
    },
    {
      "inputs": [],
      "name": "maxStaleness",
      "outputs": [
        {
          "internalType": "uint32",
          "name": "",
          "type": "uint32"
        }
      ],
      "stateMutability": "view",
      "type": "function"
    },
    {
      "inputs": [
        {
          "internalType": "bytes",
          "name": "performData",
          "type": "bytes"
        }
      ],
      "name": "performUpkeep",
      "outputs": [],
      "stateMutability": "nonpayable",
      "type": "function"
    },
    {
      "inputs": [],
      "name": "runCount",
      "outputs": [
        {
          "internalType": "uint256",
          "name": "",
          "type": "uint256"
        }
      ],
      "stateMutability": "view",
      "type": "function"
    }
  ],
  "bytecode": "0x608060405234801561000f575f5ffd5b50604051610aa4380380610aa483398101604081905261002e916101aa565b5f84511161006d5760405162461bcd60e51b81526020600482015260086024820152676e6f20666565647360c01b604482015260640160405180910390fd5b835161007f905f9060208701906100e2565b505f8363ffffffff161161009557610e10610097565b825b6001805463ffffffff9283166001600160401b03199091161764010000000094909216939093021760ff60401b19166801000000000000000091151591909102179055506102a69050565b828054828255905f5260205f20908101928215610135579160200282015b8281111561013557825182546001600160a01b0319166001600160a01b03909116178255602090920191600190910190610100565b50610141929150610145565b5090565b5b80821115610141575f8155600101610146565b634e487b7160e01b5f52604160045260245ffd5b80516001600160a01b0381168114610183575f5ffd5b919050565b805163ffffffff81168114610183575f5ffd5b80518015158114610183575f5ffd5b5f5f5f5f608085870312156101bd575f5ffd5b84516001600160401b038111156101d2575f5ffd5b8501601f810187136101e2575f5ffd5b80516001600160401b038111156101fb576101fb610159565b604051600582901b90603f8201601f191681016001600160401b038111828210171561022957610229610159565b60405291825260208184018101929081018a841115610246575f5ffd5b6020850194505b8385101561026c5761025e8561016d565b81526020948501940161024d565b50965061027f9250505060208601610188565b925061028d60408601610188565b915061029b6060860161019b565b905092959194509250565b6107f1806102b35f395ff3fe608060405234801561000f575f5ffd5b5060043610610090575f3560e01c80636e04ff0d116100635780636e04ff0d146100f957806387cf46961461011a5780639196b7001461013f578063947a36fb14610148578063c00bf23914610160575f5ffd5b806336a0b9ef146100945780633dfa5d87146100b05780634585e33b146100b95780634a5479f3146100ce575b5f5ffd5b61009d60025481565b6040519081526020015b60405180910390f35b61009d60045481565b6100cc6100c7366004610634565b610184565b005b6100e16100dc3660046106a2565b610424565b6040516001600160a01b0390911681526020016100a7565b61010c610107366004610634565b61044b565b6040516100a79291906106b9565b60015461012a9063ffffffff1681565b60405163ffffffff90911681526020016100a7565b61009d60035481565b60015461012a90640100000000900463ffffffff1681565b60015461017490600160401b900460ff1681565b60405190151581526020016100a7565b5f805460025461019491906106f7565b905060208290036101be575f6101ac838501856106a2565b5f549091508110156101bc578091505b505b5f5f82815481106101d1576101d1610716565b905f5260205f20015f9054906101000a90046001600160a01b03169050806001600160a01b031663feaf968c6040518163ffffffff1660e01b815260040160a060405180830381865afa925050508015610248575060408051601f3d908101601f1916820190925261024591810190610748565b60015b6102b25760408051818152600d818301526c18d85b1b0b5c995d995c9d1959609a1b60608201525f602082015290516001600160a01b038316917f8739070b850187b05cd3e02c3e34c1e9f6043ab0e605858189d152a2d619d9e7919081900360800190a26103b3565b5f841361032f57856001600160a01b03167f8739070b850187b05cd3e02c3e34c1e9f6043ab0e605858189d152a2d619d9e78360405161032291906040808252601390820152723737b716b837b9b4ba34bb3296b0b739bbb2b960691b6060820152602081019190915260800190565b60405180910390a26103ad565b6001546103429063ffffffff1683610796565b4211156103ad57856001600160a01b03167f8739070b850187b05cd3e02c3e34c1e9f6043ab0e605858189d152a2d619d9e7836040516103a491906040808252600590820152647374616c6560d81b6060820152602081019190915260800190565b60405180910390a25b50505050505b600160035f8282546103c59190610796565b90915550506003546040518381527fef885d13ae547f2952755e35bb377846c2c38bfb21d20b5f5fabe27e4b68825f9060200160405180910390a25f5461040d836001610796565b61041791906106f7565b6002555050426004555050565b5f8181548110610432575f80fd5b5f918252602090912001546001600160a01b0316905081565b5f8054600254606091839161046091906106f7565b600154909150600160401b900460ff16156104fb57600154640100000000900463ffffffff16158015906104b057506001546004546104ad91640100000000900463ffffffff1690610796565b42105b156104cd57505060408051602081019091525f808252915061062d565b6001816040516020016104e291815260200190565b604051602081830303815290604052925092505061062d565b5f5f828154811061050e5761050e610716565b905f5260205f20015f9054906101000a90046001600160a01b03169050806001600160a01b031663feaf968c6040518163ffffffff1660e01b815260040160a060405180830381865afa925050508015610585575060408051601f3d908101601f1916820190925261058291810190610748565b60015b6105b85760018260405160200161059e91815260200190565b60405160208183030381529060405293509350505061062d565b5f841315806105d857506001546105d59063ffffffff1683610796565b42115b15610611576001876040516020016105f291815260200190565b604051602081830303815290604052985098505050505050505061062d565b5f60405180602001604052805f81525098509850505050505050505b9250929050565b5f5f60208385031215610645575f5ffd5b823567ffffffffffffffff81111561065b575f5ffd5b8301601f8101851361066b575f5ffd5b803567ffffffffffffffff811115610681575f5ffd5b856020828401011115610692575f5ffd5b6020919091019590945092505050565b5f602082840312156106b2575f5ffd5b5035919050565b8215158152604060208201525f82518060408401528060208501606085015e5f606082850101526060601f19601f8301168401019150509392505050565b5f8261071157634e487b7160e01b5f52601260045260245ffd5b500690565b634e487b7160e01b5f52603260045260245ffd5b805169ffffffffffffffffffff81168114610743575f5ffd5b919050565b5f5f5f5f5f60a0868803121561075c575f5ffd5b6107658661072a565b6020870151604088015160608901519297509095509350915061078a6080870161072a565b90509295509295909350565b808201808211156107b557634e487b7160e01b5f52601160045260245ffd5b9291505056fea2646970667358221220e4a2ea8471390722bae45d004f11abf778c7e98a9ef267a11d8bb3e912deb51364736f6c634300081c0033",
  "linkReferences": {},
  "deployedLinkReferences": {},
  "immutableReferences": {},
  "inputSourceName": "project/contracts/SimpleFeedKeeper.sol",
  "buildInfoId": "solc-0_8_28-f664164b78f2c18cb4f4cc68134d1a39b0bd0e4e"
}