{
  "_format": "hh-sol-artifact-1",
  "contractName": "ERC1155Token",
  "sourceName": "contracts/ERC1155Token.sol",
  "abi": [
    {
      "inputs": [],
      "stateMutability": "nonpayable",
      "type": "constructor"
    },
    {
      "inputs": [
        {
          "internalType": "address",
          "name": "sender",
          "type": "address"
        },
        {
          "internalType": "uint256",
          "name": "balance",
          "type": "uint256"
        },
        {
          "internalType": "uint256",
          "name": "needed",
          "type": "uint256"
        },
        {
          "internalType": "uint256",
          "name": "tokenId",
          "type": "uint256"
        }
      ],
      "name": "ERC1155InsufficientBalance",
      "type": "error"
    },
    {
      "inputs": [
        {
          "internalType": "address",
          "name": "approver",
          "type": "address"
        }
      ],
      "name": "ERC1155InvalidApprover",
      "type": "error"
    },
    {
      "inputs": [
        {
          "internalType": "uint256",
          "name": "idsLength",
          "type": "uint256"
        },
        {
          "internalType": "uint256",
          "name": "valuesLength",
          "type": "uint256"
        }
      ],
      "name": "ERC1155InvalidArrayLength",
      "type": "error"
    },
    {
      "inputs": [
        {
          "internalType": "address",
          "name": "operator",
          "type": "address"
        }
      ],
      "name": "ERC1155InvalidOperator",
      "type": "error"
    },
    {
      "inputs": [
        {
          "internalType": "address",
          "name": "receiver",
          "type": "address"
        }
      ],
      "name": "ERC1155InvalidReceiver",
      "type": "error"
    },
    {
      "inputs": [
        {
          "internalType": "address",
          "name": "sender",
          "type": "address"
        }
      ],
      "name": "ERC1155InvalidSender",
      "type": "error"
    },
    {
      "inputs": [
        {
          "internalType": "address",
          "name": "operator",
          "type": "address"
        },
        {
          "internalType": "address",
          "name": "owner",
          "type": "address"
        }
      ],
      "name": "ERC1155MissingApprovalForAll",
      "type": "error"
    },
    {
      "inputs": [
        {
          "internalType": "address",
          "name": "owner",
          "type": "address"
        }
      ],
      "name": "OwnableInvalidOwner",
      "type": "error"
    },
    {
      "inputs": [
        {
          "internalType": "address",
          "name": "account",
          "type": "address"
        }
      ],
      "name": "OwnableUnauthorizedAccount",
      "type": "error"
    },
    {
      "anonymous": false,
      "inputs": [
        {
          "indexed": true,
          "internalType": "address",
          "name": "account",
          "type": "address"
        },
        {
          "indexed": true,
          "internalType": "address",
          "name": "operator",
          "type": "address"
        },
        {
          "indexed": false,
          "internalType": "bool",
          "name": "approved",
          "type": "bool"
        }
      ],
      "name": "ApprovalForAll",
      "type": "event"
    },
    {
      "anonymous": false,
      "inputs": [
        {
          "indexed": true,
          "internalType": "address",
          "name": "previousOwner",
          "type": "address"
        },
        {
          "indexed": true,
          "internalType": "address",
          "name": "newOwner",
          "type": "address"
        }
      ],
      "name": "OwnershipTransferStarted",
      "type": "event"
    },
    {
      "anonymous": false,
      "inputs": [
        {
          "indexed": true,
          "internalType": "address",
          "name": "previousOwner",
          "type": "address"
        },
        {
          "indexed": true,
          "internalType": "address",
          "name": "newOwner",
          "type": "address"
        }
      ],
      "name": "OwnershipTransferred",
      "type": "event"
    },
    {
      "anonymous": false,
      "inputs": [
        {
          "indexed": true,
          "internalType": "address",
          "name": "operator",
          "type": "address"
        },
        {
          "indexed": true,
          "internalType": "address",
          "name": "from",
          "type": "address"
        },
        {
          "indexed": true,
          "internalType": "address",
          "name": "to",
          "type": "address"
        },
        {
          "indexed": false,
          "internalType": "uint256[]",
          "name": "ids",
          "type": "uint256[]"
        },
        {
          "indexed": false,
          "internalType": "uint256[]",
          "name": "values",
          "type": "uint256[]"
        }
      ],
      "name": "TransferBatch",
      "type": "event"
    },
    {
      "anonymous": false,
      "inputs": [
        {
          "indexed": true,
          "internalType": "address",
          "name": "operator",
          "type": "address"
        },
        {
          "indexed": true,
          "internalType": "address",
          "name": "from",
          "type": "address"
        },
        {
          "indexed": true,
          "internalType": "address",
          "name": "to",
          "type": "address"
        },
        {
          "indexed": false,
          "internalType": "uint256",
          "name": "id",
          "type": "uint256"
        },
        {
          "indexed": false,
          "internalType": "uint256",
          "name": "value",
          "type": "uint256"
        }
      ],
      "name": "TransferSingle",
      "type": "event"
    },
    {
      "anonymous": false,
      "inputs": [
        {
          "indexed": false,
          "internalType": "string",
          "name": "value",
          "type": "string"
        },
        {
          "indexed": true,
          "internalType": "uint256",
          "name": "id",
          "type": "uint256"
        }
      ],
      "name": "URI",
      "type": "event"
    },
    {
      "inputs": [],
      "name": "TOKEN_0",
      "outputs": [
        {
          "internalType": "uint8",
          "name": "",
          "type": "uint8"
        }
      ],
      "stateMutability": "view",
      "type": "function"
    },
    {
      "inputs": [],
      "name": "TOKEN_1",
      "outputs": [
        {
          "internalType": "uint8",
          "name": "",
          "type": "uint8"
        }
      ],
      "stateMutability": "view",
      "type": "function"
    },
    {
      "inputs": [],
      "name": "TOKEN_2",
      "outputs": [
        {
          "internalType": "uint8",
          "name": "",
          "type": "uint8"
        }
      ],
      "stateMutability": "view",
      "type": "function"
    },
    {
      "inputs": [],
      "name": "TOKEN_3",
      "outputs": [
        {
          "internalType": "uint8",
          "name": "",
          "type": "uint8"
        }
      ],
      "stateMutability": "view",
      "type": "function"
    },
    {
      "inputs": [],
      "name": "TOKEN_4",
      "outputs": [
        {
          "internalType": "uint8",
          "name": "",
          "type": "uint8"
        }
      ],
      "stateMutability": "view",
      "type": "function"
    },
    {
      "inputs": [],
      "name": "TOKEN_5",
      "outputs": [
        {
          "internalType": "uint8",
          "name": "",
          "type": "uint8"
        }
      ],
      "stateMutability": "view",
      "type": "function"
    },
    {
      "inputs": [],
      "name": "TOKEN_6",
      "outputs": [
        {
          "internalType": "uint8",
          "name": "",
          "type": "uint8"
        }
      ],
      "stateMutability": "view",
      "type": "function"
    },
    {
      "inputs": [],
      "name": "acceptOwnership",
      "outputs": [],
      "stateMutability": "nonpayable",
      "type": "function"
    },
    {
      "inputs": [
        {
          "internalType": "address",
          "name": "account",
          "type": "address"
        },
        {
          "internalType": "uint256",
          "name": "id",
          "type": "uint256"
        }
      ],
      "name": "balanceOf",
      "outputs": [
        {
          "internalType": "uint256",
          "name": "",
          "type": "uint256"
        }
      ],
      "stateMutability": "view",
      "type": "function"
    },
    {
      "inputs": [
        {
          "internalType": "address[]",
          "name": "accounts",
          "type": "address[]"
        },
        {
          "internalType": "uint256[]",
          "name": "ids",
          "type": "uint256[]"
        }
      ],
      "name": "balanceOfBatch",
      "outputs": [
        {
          "internalType": "uint256[]",
          "name": "",
          "type": "uint256[]"
        }
      ],
      "stateMutability": "view",
      "type": "function"
    },
    {
      "inputs": [
        {
          "internalType": "address",
          "name": "from",
          "type": "address"
        },
        {
          "internalType": "uint256",
          "name": "id",
          "type": "uint256"
        },
        {
          "internalType": "uint256",
          "name": "value",
          "type": "uint256"
        }
      ],
      "name": "burn",
      "outputs": [],
      "stateMutability": "nonpayable",
      "type": "function"
    },
    {
      "inputs": [
        {
          "internalType": "address",
          "name": "account",
          "type": "address"
        },
        {
          "internalType": "address",
          "name": "operator",
          "type": "address"
        }
      ],
      "name": "isApprovedForAll",
      "outputs": [
        {
          "internalType": "bool",
          "name": "",
          "type": "bool"
        }
      ],
      "stateMutability": "view",
      "type": "function"
    },
    {
      "inputs": [
        {
          "internalType": "address",
          "name": "to",
          "type": "address"
        },
        {
          "internalType": "uint256",
          "name": "id",
          "type": "uint256"
        },
        {
          "internalType": "uint256",
          "name": "value",
          "type": "uint256"
        },
        {
          "internalType": "bytes",
          "name": "data",
          "type": "bytes"
        }
      ],
      "name": "mint",
      "outputs": [],
      "stateMutability": "nonpayable",
      "type": "function"
    },
    {
      "inputs": [],
      "name": "owner",
      "outputs": [
        {
          "internalType": "address",
          "name": "",
          "type": "address"
        }
      ],
      "stateMutability": "view",
      "type": "function"
    },
    {
      "inputs": [],
      "name": "pendingOwner",
      "outputs": [
        {
          "internalType": "address",
          "name": "",
          "type": "address"
        }
      ],
      "stateMutability": "view",
      "type": "function"
    },
    {
      "inputs": [],
      "name": "renounceOwnership",
      "outputs": [],
      "stateMutability": "nonpayable",
      "type": "function"
    },
    {
      "inputs": [
        {
          "internalType": "address",
          "name": "from",
          "type": "address"
        },
        {
          "internalType": "address",
          "name": "to",
          "type": "address"
        },
        {
          "internalType": "uint256[]",
          "name": "ids",
          "type": "uint256[]"
        },
        {
          "internalType": "uint256[]",
          "name": "values",
          "type": "uint256[]"
        },
        {
          "internalType": "bytes",
          "name": "data",
          "type": "bytes"
        }
      ],
      "name": "safeBatchTransferFrom",
      "outputs": [],
      "stateMutability": "nonpayable",
      "type": "function"
    },
    {
      "inputs": [
        {
          "internalType": "address",
          "name": "from",
          "type": "address"
        },
        {
          "internalType": "address",
          "name": "to",
          "type": "address"
        },
        {
          "internalType": "uint256",
          "name": "id",
          "type": "uint256"
        },
        {
          "internalType": "uint256",
          "name": "value",
          "type": "uint256"
        },
        {
          "internalType": "bytes",
          "name": "data",
          "type": "bytes"
        }
      ],
      "name": "safeTransferFrom",
      "outputs": [],
      "stateMutability": "nonpayable",
      "type": "function"
    },
    {
      "inputs": [
        {
          "internalType": "address",
          "name": "operator",
          "type": "address"
        },
        {
          "internalType": "bool",
          "name": "approved",
          "type": "bool"
        }
      ],
      "name": "setApprovalForAll",
      "outputs": [],
      "stateMutability": "nonpayable",
      "type": "function"
    },
    {
      "inputs": [
        {
          "internalType": "string",
          "name": "newuri",
          "type": "string"
        }
      ],
      "name": "setURI",
      "outputs": [],
      "stateMutability": "nonpayable",
      "type": "function"
    },
    {
      "inputs": [
        {
          "internalType": "bytes4",
          "name": "interfaceId",
          "type": "bytes4"
        }
      ],
      "name": "supportsInterface",
      "outputs": [
        {
          "internalType": "bool",
          "name": "",
          "type": "bool"
        }
      ],
      "stateMutability": "view",
      "type": "function"
    },
    {
      "inputs": [
        {
          "internalType": "address",
          "name": "newOwner",
          "type": "address"
        }
      ],
      "name": "transferOwnership",
      "outputs": [],
      "stateMutability": "nonpayable",
      "type": "function"
    },
    {
      "inputs": [
        {
          "internalType": "uint256",
          "name": "",
          "type": "uint256"
        }
      ],
      "name": "uri",
      "outputs": [
        {
          "internalType": "string",
          "name": "",
          "type": "string"
        }
      ],
      "stateMutability": "view",
      "type": "function"
    }
  ],
  "bytecode": "0x608060405234801561001057600080fd5b50336040518060800160405280604c8152602001613027604c913961003a816100c260201b60201c565b50600073ffffffffffffffffffffffffffffffffffffffff168173ffffffffffffffffffffffffffffffffffffffff16036100ad5760006040517f1e4fbdf70000000000000000000000000000000000000000000000000000000081526004016100a49190610213565b60405180910390fd5b6100bc816100d560201b60201c565b50610550565b80600290816100d1919061047e565b5050565b600460006101000a81549073ffffffffffffffffffffffffffffffffffffffff02191690556101098161010c60201b60201c565b50565b6000600360009054906101000a900473ffffffffffffffffffffffffffffffffffffffff16905081600360006101000a81548173ffffffffffffffffffffffffffffffffffffffff021916908373ffffffffffffffffffffffffffffffffffffffff1602179055508173ffffffffffffffffffffffffffffffffffffffff168173ffffffffffffffffffffffffffffffffffffffff167f8be0079c531659141344cd1fd0a4f28419497f9722a3daafe3b4186f6b6457e060405160405180910390a35050565b600073ffffffffffffffffffffffffffffffffffffffff82169050919050565b60006101fd826101d2565b9050919050565b61020d816101f2565b82525050565b60006020820190506102286000830184610204565b92915050565b600081519050919050565b7f4e487b7100000000000000000000000000000000000000000000000000000000600052604160045260246000fd5b7f4e487b7100000000000000000000000000000000000000000000000000000000600052602260045260246000fd5b600060028204905060018216806102af57607f821691505b6020821081036102c2576102c1610268565b5b50919050565b60008190508160005260206000209050919050565b60006020601f8301049050919050565b600082821b905092915050565b60006008830261032a7fffffffffffffffffffffffffffffffffffffffffffffffffffffffffffffffff826102ed565b61033486836102ed565b95508019841693508086168417925050509392505050565b6000819050919050565b6000819050919050565b600061037b6103766103718461034c565b610356565b61034c565b9050919050565b6000819050919050565b61039583610360565b6103a96103a182610382565b8484546102fa565b825550505050565b600090565b6103be6103b1565b6103c981848461038c565b505050565b5b818110156103ed576103e26000826103b6565b6001810190506103cf565b5050565b601f82111561043257610403816102c8565b61040c846102dd565b8101602085101561041b578190505b61042f610427856102dd565b8301826103ce565b50505b505050565b600082821c905092915050565b600061045560001984600802610437565b1980831691505092915050565b600061046e8383610444565b9150826002028217905092915050565b6104878261022e565b67ffffffffffffffff8111156104a05761049f610239565b5b6104aa8254610297565b6104b58282856103f1565b600060209050601f8311600181146104e857600084156104d6578287015190505b6104e08582610462565b865550610548565b601f1984166104f6866102c8565b60005b8281101561051e578489015182556001820191506020850194506020810190506104f9565b8683101561053b5784890151610537601f891682610444565b8355505b6001600288020188555050505b505050505050565b612ac88061055f6000396000f3fe608060405234801561001057600080fd5b506004361061014c5760003560e01c806379ba5097116100c3578063e30c39781161007c578063e30c397814610367578063e74d386214610385578063e985e9c5146103a3578063f242432a146103d3578063f2fde38b146103ef578063f5298aca1461040b5761014c565b806379ba5097146102c957806382c0fa30146102d35780638da5cb5b146102f1578063a22cb4651461030f578063a3cacc851461032b578063d99939a2146103495761014c565b80632eb2c2d6116101155780632eb2c2d61461021b578063453f6a32146102375780634a3268e4146102555780634e1273f414610273578063715018a6146102a3578063731133e9146102ad5761014c565b8062fdd58e1461015157806301ffc9a71461018157806302fe5305146101b15780630d9371ad146101cd5780630e89341c146101eb575b600080fd5b61016b60048036038101906101669190611a7f565b610427565b6040516101789190611ace565b60405180910390f35b61019b60048036038101906101969190611b41565b610481565b6040516101a89190611b89565b60405180910390f35b6101cb60048036038101906101c69190611cea565b610563565b005b6101d5610577565b6040516101e29190611d4f565b60405180910390f35b61020560048036038101906102009190611d6a565b61057c565b6040516102129190611e16565b60405180910390f35b61023560048036038101906102309190611fa1565b610610565b005b61023f6106b8565b60405161024c9190611d4f565b60405180910390f35b61025d6106bd565b60405161026a9190611d4f565b60405180910390f35b61028d60048036038101906102889190612133565b6106c2565b60405161029a9190612269565b60405180910390f35b6102ab6107cb565b005b6102c760048036038101906102c2919061228b565b6107df565b005b6102d16107f9565b005b6102db610888565b6040516102e89190611d4f565b60405180910390f35b6102f961088d565b604051610306919061231d565b60405180910390f35b61032960048036038101906103249190612364565b6108b7565b005b6103336108cd565b6040516103409190611d4f565b60405180910390f35b6103516108d2565b60405161035e9190611d4f565b60405180910390f35b61036f6108d7565b60405161037c919061231d565b60405180910390f35b61038d610901565b60405161039a9190611d4f565b60405180910390f35b6103bd60048036038101906103b891906123a4565b610906565b6040516103ca9190611b89565b60405180910390f35b6103ed60048036038101906103e891906123e4565b61099a565b005b6104096004803603810190610404919061247b565b610a42565b005b610425600480360381019061042091906124a8565b610aef565b005b600080600083815260200190815260200160002060008473ffffffffffffffffffffffffffffffffffffffff1673ffffffffffffffffffffffffffffffffffffffff16815260200190815260200160002054905092915050565b60007fd9b67a26000000000000000000000000000000000000000000000000000000007bffffffffffffffffffffffffffffffffffffffffffffffffffffffff1916827bffffffffffffffffffffffffffffffffffffffffffffffffffffffff1916148061054c57507f0e89341c000000000000000000000000000000000000000000000000000000007bffffffffffffffffffffffffffffffffffffffffffffffffffffffff1916827bffffffffffffffffffffffffffffffffffffffffffffffffffffffff1916145b8061055c575061055b82610b07565b5b9050919050565b61056b610b71565b61057481610bf8565b50565b600481565b60606002805461058b9061252a565b80601f01602080910402602001604051908101604052809291908181526020018280546105b79061252a565b80156106045780601f106105d957610100808354040283529160200191610604565b820191906000526020600020905b8154815290600101906020018083116105e757829003601f168201915b50505050509050919050565b600061061a610c0b565b90508073ffffffffffffffffffffffffffffffffffffffff168673ffffffffffffffffffffffffffffffffffffffff161415801561065f575061065d8682610906565b155b156106a35780866040517fe237d92200000000000000000000000000000000000000000000000000000000815260040161069a92919061255b565b60405180910390fd5b6106b08686868686610c13565b505050505050565b600381565b600181565b6060815183511461070e57815183516040517f5b059991000000000000000000000000000000000000000000000000000000008152600401610705929190612584565b60405180910390fd5b6000835167ffffffffffffffff81111561072b5761072a611bbf565b5b6040519080825280602002602001820160405280156107595781602001602082028036833780820191505090505b50905060005b84518110156107c05761079661077e8287610d0b90919063ffffffff16565b6107918387610d1f90919063ffffffff16565b610427565b8282815181106107a9576107a86125ad565b5b60200260200101818152505080600101905061075f565b508091505092915050565b6107d3610b71565b6107dd6000610d33565b565b6107e7610b71565b6107f384848484610d64565b50505050565b6000610803610c0b565b90508073ffffffffffffffffffffffffffffffffffffffff166108246108d7565b73ffffffffffffffffffffffffffffffffffffffff161461087c57806040517f118cdaa7000000000000000000000000000000000000000000000000000000008152600401610873919061231d565b60405180910390fd5b61088581610d33565b50565b600281565b6000600360009054906101000a900473ffffffffffffffffffffffffffffffffffffffff16905090565b6108c96108c2610c0b565b8383610dfd565b5050565b600681565b600081565b6000600460009054906101000a900473ffffffffffffffffffffffffffffffffffffffff16905090565b600581565b6000600160008473ffffffffffffffffffffffffffffffffffffffff1673ffffffffffffffffffffffffffffffffffffffff16815260200190815260200160002060008373ffffffffffffffffffffffffffffffffffffffff1673ffffffffffffffffffffffffffffffffffffffff16815260200190815260200160002060009054906101000a900460ff16905092915050565b60006109a4610c0b565b90508073ffffffffffffffffffffffffffffffffffffffff168673ffffffffffffffffffffffffffffffffffffffff16141580156109e957506109e78682610906565b155b15610a2d5780866040517fe237d922000000000000000000000000000000000000000000000000000000008152600401610a2492919061255b565b60405180910390fd5b610a3a8686868686610f6d565b505050505050565b610a4a610b71565b80600460006101000a81548173ffffffffffffffffffffffffffffffffffffffff021916908373ffffffffffffffffffffffffffffffffffffffff1602179055508073ffffffffffffffffffffffffffffffffffffffff16610aaa61088d565b73ffffffffffffffffffffffffffffffffffffffff167f38d16b8cac22d99fc7c124b9cd0de2d3fa1faef420bfe791d8c362d765e2270060405160405180910390a350565b610af7610b71565b610b02838383611078565b505050565b60007f01ffc9a7000000000000000000000000000000000000000000000000000000007bffffffffffffffffffffffffffffffffffffffffffffffffffffffff1916827bffffffffffffffffffffffffffffffffffffffffffffffffffffffff1916149050919050565b610b79610c0b565b73ffffffffffffffffffffffffffffffffffffffff16610b9761088d565b73ffffffffffffffffffffffffffffffffffffffff1614610bf657610bba610c0b565b6040517f118cdaa7000000000000000000000000000000000000000000000000000000008152600401610bed919061231d565b60405180910390fd5b565b8060029081610c079190612788565b5050565b600033905090565b600073ffffffffffffffffffffffffffffffffffffffff168473ffffffffffffffffffffffffffffffffffffffff1603610c855760006040517f57f447ce000000000000000000000000000000000000000000000000000000008152600401610c7c919061231d565b60405180910390fd5b600073ffffffffffffffffffffffffffffffffffffffff168573ffffffffffffffffffffffffffffffffffffffff1603610cf75760006040517f01a83514000000000000000000000000000000000000000000000000000000008152600401610cee919061231d565b60405180910390fd5b610d04858585858561111f565b5050505050565b600060208202602084010151905092915050565b600060208202602084010151905092915050565b600460006101000a81549073ffffffffffffffffffffffffffffffffffffffff0219169055610d61816111d1565b50565b600073ffffffffffffffffffffffffffffffffffffffff168473ffffffffffffffffffffffffffffffffffffffff1603610dd65760006040517f57f447ce000000000000000000000000000000000000000000000000000000008152600401610dcd919061231d565b60405180910390fd5b600080610de38585611297565b91509150610df560008784848761111f565b505050505050565b600073ffffffffffffffffffffffffffffffffffffffff168273ffffffffffffffffffffffffffffffffffffffff1603610e6f5760006040517fced3e100000000000000000000000000000000000000000000000000000000008152600401610e66919061231d565b60405180910390fd5b80600160008573ffffffffffffffffffffffffffffffffffffffff1673ffffffffffffffffffffffffffffffffffffffff16815260200190815260200160002060008473ffffffffffffffffffffffffffffffffffffffff1673ffffffffffffffffffffffffffffffffffffffff16815260200190815260200160002060006101000a81548160ff0219169083151502179055508173ffffffffffffffffffffffffffffffffffffffff168373ffffffffffffffffffffffffffffffffffffffff167f17307eab39ab6107e8899845ad3d59bd9653f200f220920489ca2b5937696c3183604051610f609190611b89565b60405180910390a3505050565b600073ffffffffffffffffffffffffffffffffffffffff168473ffffffffffffffffffffffffffffffffffffffff1603610fdf5760006040517f57f447ce000000000000000000000000000000000000000000000000000000008152600401610fd6919061231d565b60405180910390fd5b600073ffffffffffffffffffffffffffffffffffffffff168573ffffffffffffffffffffffffffffffffffffffff16036110515760006040517f01a83514000000000000000000000000000000000000000000000000000000008152600401611048919061231d565b60405180910390fd5b60008061105e8585611297565b9150915061106f878784848761111f565b50505050505050565b600073ffffffffffffffffffffffffffffffffffffffff168373ffffffffffffffffffffffffffffffffffffffff16036110ea5760006040517f01a835140000000000000000000000000000000000000000000000000000000081526004016110e1919061231d565b60405180910390fd5b6000806110f78484611297565b9150915061111885600084846040518060200160405280600081525061111f565b5050505050565b61112b858585856112c7565b600073ffffffffffffffffffffffffffffffffffffffff168473ffffffffffffffffffffffffffffffffffffffff16146111ca576000611169610c0b565b905060018451036111b957600061118a600086610d1f90919063ffffffff16565b905060006111a2600086610d1f90919063ffffffff16565b90506111b283898985858961166f565b50506111c8565b6111c7818787878787611823565b5b505b5050505050565b6000600360009054906101000a900473ffffffffffffffffffffffffffffffffffffffff16905081600360006101000a81548173ffffffffffffffffffffffffffffffffffffffff021916908373ffffffffffffffffffffffffffffffffffffffff1602179055508173ffffffffffffffffffffffffffffffffffffffff168173ffffffffffffffffffffffffffffffffffffffff167f8be0079c531659141344cd1fd0a4f28419497f9722a3daafe3b4186f6b6457e060405160405180910390a35050565b60608060405191506001825283602083015260408201905060018152826020820152604081016040529250929050565b805182511461131157815181516040517f5b059991000000000000000000000000000000000000000000000000000000008152600401611308929190612584565b60405180910390fd5b600061131b610c0b565b905060005b835181101561152a57600061133e8286610d1f90919063ffffffff16565b905060006113558386610d1f90919063ffffffff16565b9050600073ffffffffffffffffffffffffffffffffffffffff168873ffffffffffffffffffffffffffffffffffffffff161461148257600080600084815260200190815260200160002060008a73ffffffffffffffffffffffffffffffffffffffff1673ffffffffffffffffffffffffffffffffffffffff1681526020019081526020016000205490508181101561142a57888183856040517f03dee4c5000000000000000000000000000000000000000000000000000000008152600401611421949392919061285a565b60405180910390fd5b81810360008085815260200190815260200160002060008b73ffffffffffffffffffffffffffffffffffffffff1673ffffffffffffffffffffffffffffffffffffffff16815260200190815260200160002081905550505b600073ffffffffffffffffffffffffffffffffffffffff168773ffffffffffffffffffffffffffffffffffffffff161461151d578060008084815260200190815260200160002060008973ffffffffffffffffffffffffffffffffffffffff1673ffffffffffffffffffffffffffffffffffffffff168152602001908152602001600020600082825461151591906128ce565b925050819055505b5050806001019050611320565b5060018351036115e957600061154a600085610d1f90919063ffffffff16565b90506000611562600085610d1f90919063ffffffff16565b90508573ffffffffffffffffffffffffffffffffffffffff168773ffffffffffffffffffffffffffffffffffffffff168473ffffffffffffffffffffffffffffffffffffffff167fc3d58168c5ae7397731d063d5bbf3d657854427343f4c083240f7aacaa2d0f6285856040516115da929190612584565b60405180910390a45050611668565b8373ffffffffffffffffffffffffffffffffffffffff168573ffffffffffffffffffffffffffffffffffffffff168273ffffffffffffffffffffffffffffffffffffffff167f4a39dc06d4c0dbc64b70af90fd698a233a518aa5d07e595d983b8c0526c8f7fb868660405161165f929190612902565b60405180910390a45b5050505050565b60008473ffffffffffffffffffffffffffffffffffffffff163b111561181b578373ffffffffffffffffffffffffffffffffffffffff1663f23a6e6187878686866040518663ffffffff1660e01b81526004016116d095949392919061298e565b6020604051808303816000875af192505050801561170c57506040513d601f19601f8201168201806040525081019061170991906129fd565b60015b611790573d806000811461173c576040519150601f19603f3d011682016040523d82523d6000602084013e611741565b606091505b50600081510361178857846040517f57f447ce00000000000000000000000000000000000000000000000000000000815260040161177f919061231d565b60405180910390fd5b805181602001fd5b63f23a6e6160e01b7bffffffffffffffffffffffffffffffffffffffffffffffffffffffff1916817bffffffffffffffffffffffffffffffffffffffffffffffffffffffff19161461181957846040517f57f447ce000000000000000000000000000000000000000000000000000000008152600401611810919061231d565b60405180910390fd5b505b505050505050565b60008473ffffffffffffffffffffffffffffffffffffffff163b11156119cf578373ffffffffffffffffffffffffffffffffffffffff1663bc197c8187878686866040518663ffffffff1660e01b8152600401611884959493929190612a2a565b6020604051808303816000875af19250505080156118c057506040513d601f19601f820116820180604052508101906118bd91906129fd565b60015b611944573d80600081146118f0576040519150601f19603f3d011682016040523d82523d6000602084013e6118f5565b606091505b50600081510361193c57846040517f57f447ce000000000000000000000000000000000000000000000000000000008152600401611933919061231d565b60405180910390fd5b805181602001fd5b63bc197c8160e01b7bffffffffffffffffffffffffffffffffffffffffffffffffffffffff1916817bffffffffffffffffffffffffffffffffffffffffffffffffffffffff1916146119cd57846040517f57f447ce0000000000000000000000000000000000000000000000000000000081526004016119c4919061231d565b60405180910390fd5b505b505050505050565b6000604051905090565b600080fd5b600080fd5b600073ffffffffffffffffffffffffffffffffffffffff82169050919050565b6000611a16826119eb565b9050919050565b611a2681611a0b565b8114611a3157600080fd5b50565b600081359050611a4381611a1d565b92915050565b6000819050919050565b611a5c81611a49565b8114611a6757600080fd5b50565b600081359050611a7981611a53565b92915050565b60008060408385031215611a9657611a956119e1565b5b6000611aa485828601611a34565b9250506020611ab585828601611a6a565b9150509250929050565b611ac881611a49565b82525050565b6000602082019050611ae36000830184611abf565b92915050565b60007fffffffff0000000000000000000000000000000000000000000000000000000082169050919050565b611b1e81611ae9565b8114611b2957600080fd5b50565b600081359050611b3b81611b15565b92915050565b600060208284031215611b5757611b566119e1565b5b6000611b6584828501611b2c565b91505092915050565b60008115159050919050565b611b8381611b6e565b82525050565b6000602082019050611b9e6000830184611b7a565b92915050565b600080fd5b600080fd5b6000601f19601f8301169050919050565b7f4e487b7100000000000000000000000000000000000000000000000000000000600052604160045260246000fd5b611bf782611bae565b810181811067ffffffffffffffff82111715611c1657611c15611bbf565b5b80604052505050565b6000611c296119d7565b9050611c358282611bee565b919050565b600067ffffffffffffffff821115611c5557611c54611bbf565b5b611c5e82611bae565b9050602081019050919050565b82818337600083830152505050565b6000611c8d611c8884611c3a565b611c1f565b905082815260208101848484011115611ca957611ca8611ba9565b5b611cb4848285611c6b565b509392505050565b600082601f830112611cd157611cd0611ba4565b5b8135611ce1848260208601611c7a565b91505092915050565b600060208284031215611d0057611cff6119e1565b5b600082013567ffffffffffffffff811115611d1e57611d1d6119e6565b5b611d2a84828501611cbc565b91505092915050565b600060ff82169050919050565b611d4981611d33565b82525050565b6000602082019050611d646000830184611d40565b92915050565b600060208284031215611d8057611d7f6119e1565b5b6000611d8e84828501611a6a565b91505092915050565b600081519050919050565b600082825260208201905092915050565b60005b83811015611dd1578082015181840152602081019050611db6565b60008484015250505050565b6000611de882611d97565b611df28185611da2565b9350611e02818560208601611db3565b611e0b81611bae565b840191505092915050565b60006020820190508181036000830152611e308184611ddd565b905092915050565b600067ffffffffffffffff821115611e5357611e52611bbf565b5b602082029050602081019050919050565b600080fd5b6000611e7c611e7784611e38565b611c1f565b90508083825260208201905060208402830185811115611e9f57611e9e611e64565b5b835b81811015611ec85780611eb48882611a6a565b845260208401935050602081019050611ea1565b5050509392505050565b600082601f830112611ee757611ee6611ba4565b5b8135611ef7848260208601611e69565b91505092915050565b600067ffffffffffffffff821115611f1b57611f1a611bbf565b5b611f2482611bae565b9050602081019050919050565b6000611f44611f3f84611f00565b611c1f565b905082815260208101848484011115611f6057611f5f611ba9565b5b611f6b848285611c6b565b509392505050565b600082601f830112611f8857611f87611ba4565b5b8135611f98848260208601611f31565b91505092915050565b600080600080600060a08688031215611fbd57611fbc6119e1565b5b6000611fcb88828901611a34565b9550506020611fdc88828901611a34565b945050604086013567ffffffffffffffff811115611ffd57611ffc6119e6565b5b61200988828901611ed2565b935050606086013567ffffffffffffffff81111561202a576120296119e6565b5b61203688828901611ed2565b925050608086013567ffffffffffffffff811115612057576120566119e6565b5b61206388828901611f73565b9150509295509295909350565b600067ffffffffffffffff82111561208b5761208a611bbf565b5b602082029050602081019050919050565b60006120af6120aa84612070565b611c1f565b905080838252602082019050602084028301858111156120d2576120d1611e64565b5b835b818110156120fb57806120e78882611a34565b8452602084019350506020810190506120d4565b5050509392505050565b600082601f83011261211a57612119611ba4565b5b813561212a84826020860161209c565b91505092915050565b6000806040838503121561214a576121496119e1565b5b600083013567ffffffffffffffff811115612168576121676119e6565b5b61217485828601612105565b925050602083013567ffffffffffffffff811115612195576121946119e6565b5b6121a185828601611ed2565b9150509250929050565b600081519050919050565b600082825260208201905092915050565b6000819050602082019050919050565b6121e081611a49565b82525050565b60006121f283836121d7565b60208301905092915050565b6000602082019050919050565b6000612216826121ab565b61222081856121b6565b935061222b836121c7565b8060005b8381101561225c57815161224388826121e6565b975061224e836121fe565b92505060018101905061222f565b5085935050505092915050565b60006020820190508181036000830152612283818461220b565b905092915050565b600080600080608085870312156122a5576122a46119e1565b5b60006122b387828801611a34565b94505060206122c487828801611a6a565b93505060406122d587828801611a6a565b925050606085013567ffffffffffffffff8111156122f6576122f56119e6565b5b61230287828801611f73565b91505092959194509250565b61231781611a0b565b82525050565b6000602082019050612332600083018461230e565b92915050565b61234181611b6e565b811461234c57600080fd5b50565b60008135905061235e81612338565b92915050565b6000806040838503121561237b5761237a6119e1565b5b600061238985828601611a34565b925050602061239a8582860161234f565b9150509250929050565b600080604083850312156123bb576123ba6119e1565b5b60006123c985828601611a34565b92505060206123da85828601611a34565b9150509250929050565b600080600080600060a08688031215612400576123ff6119e1565b5b600061240e88828901611a34565b955050602061241f88828901611a34565b945050604061243088828901611a6a565b935050606061244188828901611a6a565b925050608086013567ffffffffffffffff811115612462576124616119e6565b5b61246e88828901611f73565b9150509295509295909350565b600060208284031215612491576124906119e1565b5b600061249f84828501611a34565b91505092915050565b6000806000606084860312156124c1576124c06119e1565b5b60006124cf86828701611a34565b93505060206124e086828701611a6a565b92505060406124f186828701611a6a565b9150509250925092565b7f4e487b7100000000000000000000000000000000000000000000000000000000600052602260045260246000fd5b6000600282049050600182168061254257607f821691505b602082108103612555576125546124fb565b5b50919050565b6000604082019050612570600083018561230e565b61257d602083018461230e565b9392505050565b60006040820190506125996000830185611abf565b6125a66020830184611abf565b9392505050565b7f4e487b7100000000000000000000000000000000000000000000000000000000600052603260045260246000fd5b60008190508160005260206000209050919050565b60006020601f8301049050919050565b600082821b905092915050565b60006008830261263e7fffffffffffffffffffffffffffffffffffffffffffffffffffffffffffffffff82612601565b6126488683612601565b95508019841693508086168417925050509392505050565b6000819050919050565b600061268561268061267b84611a49565b612660565b611a49565b9050919050565b6000819050919050565b61269f8361266a565b6126b36126ab8261268c565b84845461260e565b825550505050565b600090565b6126c86126bb565b6126d3818484612696565b505050565b5b818110156126f7576126ec6000826126c0565b6001810190506126d9565b5050565b601f82111561273c5761270d816125dc565b612716846125f1565b81016020851015612725578190505b612739612731856125f1565b8301826126d8565b50505b505050565b600082821c905092915050565b600061275f60001984600802612741565b1980831691505092915050565b6000612778838361274e565b9150826002028217905092915050565b61279182611d97565b67ffffffffffffffff8111156127aa576127a9611bbf565b5b6127b4825461252a565b6127bf8282856126fb565b600060209050601f8311600181146127f257600084156127e0578287015190505b6127ea858261276c565b865550612852565b601f198416612800866125dc565b60005b8281101561282857848901518255600182019150602085019450602081019050612803565b868310156128455784890151612841601f89168261274e565b8355505b6001600288020188555050505b505050505050565b600060808201905061286f600083018761230e565b61287c6020830186611abf565b6128896040830185611abf565b6128966060830184611abf565b95945050505050565b7f4e487b7100000000000000000000000000000000000000000000000000000000600052601160045260246000fd5b60006128d982611a49565b91506128e483611a49565b92508282019050808211156128fc576128fb61289f565b5b92915050565b6000604082019050818103600083015261291c818561220b565b90508181036020830152612930818461220b565b90509392505050565b600081519050919050565b600082825260208201905092915050565b600061296082612939565b61296a8185612944565b935061297a818560208601611db3565b61298381611bae565b840191505092915050565b600060a0820190506129a3600083018861230e565b6129b0602083018761230e565b6129bd6040830186611abf565b6129ca6060830185611abf565b81810360808301526129dc8184612955565b90509695505050505050565b6000815190506129f781611b15565b92915050565b600060208284031215612a1357612a126119e1565b5b6000612a21848285016129e8565b91505092915050565b600060a082019050612a3f600083018861230e565b612a4c602083018761230e565b8181036040830152612a5e818661220b565b90508181036060830152612a72818561220b565b90508181036080830152612a868184612955565b9050969550505050505056fea2646970667358221220d3e519ead456339c9cd9086b3f339096480de5970fd728db37a53d5fe65c189e64736f6c634300081e0033697066733a2f2f6261667962656967727174376e6e336b36706679743574666e3366776a636564326e65346a3661786165346c766f6b733232763577363461627a6d2f7b69647d2e6a736f6e",
  "linkReferences": {},
  "deployedLinkReferences": {}
}