{
  "_format": "hh-sol-artifact-1",
  "contractName": "ForgeERC1155Token",
  "sourceName": "contracts/ForgeERC1155Token.sol",
  "abi": [
    {
      "inputs": [
        {
          "internalType": "address",
          "name": "tokenAddress",
          "type": "address"
        }
      ],
      "stateMutability": "nonpayable",
      "type": "constructor"
    },
    {
      "inputs": [
        {
          "internalType": "address",
          "name": "user",
          "type": "address"
        }
      ],
      "name": "CooldownActive",
      "type": "error"
    },
    {
      "inputs": [
        {
          "internalType": "address",
          "name": "user",
          "type": "address"
        },
        {
          "internalType": "uint256",
          "name": "id1",
          "type": "uint256"
        },
        {
          "internalType": "uint256",
          "name": "id2",
          "type": "uint256"
        }
      ],
      "name": "InsufficientBalanceToken3to5",
      "type": "error"
    },
    {
      "inputs": [
        {
          "internalType": "address",
          "name": "user",
          "type": "address"
        },
        {
          "internalType": "uint256",
          "name": "id1",
          "type": "uint256"
        },
        {
          "internalType": "uint256",
          "name": "id2",
          "type": "uint256"
        },
        {
          "internalType": "uint256",
          "name": "id3",
          "type": "uint256"
        }
      ],
      "name": "InsufficientBalanceToken6",
      "type": "error"
    },
    {
      "inputs": [],
      "name": "MINUTE_CD",
      "outputs": [
        {
          "internalType": "uint8",
          "name": "",
          "type": "uint8"
        }
      ],
      "stateMutability": "view",
      "type": "function"
    },
    {
      "inputs": [],
      "name": "acceptERC1155TokenOwnership",
      "outputs": [],
      "stateMutability": "nonpayable",
      "type": "function"
    },
    {
      "inputs": [
        {
          "internalType": "uint256",
          "name": "id",
          "type": "uint256"
        }
      ],
      "name": "burnToken",
      "outputs": [],
      "stateMutability": "nonpayable",
      "type": "function"
    },
    {
      "inputs": [
        {
          "internalType": "string",
          "name": "newuri",
          "type": "string"
        }
      ],
      "name": "changeURI",
      "outputs": [],
      "stateMutability": "nonpayable",
      "type": "function"
    },
    {
      "inputs": [
        {
          "internalType": "address",
          "name": "",
          "type": "address"
        }
      ],
      "name": "lastMintTime",
      "outputs": [
        {
          "internalType": "uint256",
          "name": "",
          "type": "uint256"
        }
      ],
      "stateMutability": "view",
      "type": "function"
    },
    {
      "inputs": [
        {
          "internalType": "uint256",
          "name": "id",
          "type": "uint256"
        },
        {
          "internalType": "bytes",
          "name": "data",
          "type": "bytes"
        }
      ],
      "name": "mintToken",
      "outputs": [],
      "stateMutability": "nonpayable",
      "type": "function"
    },
    {
      "inputs": [
        {
          "internalType": "uint256",
          "name": "id",
          "type": "uint256"
        },
        {
          "internalType": "uint256",
          "name": "targetId",
          "type": "uint256"
        }
      ],
      "name": "tradeToken",
      "outputs": [],
      "stateMutability": "nonpayable",
      "type": "function"
    }
  ],
  "bytecode": "0x608060405234801561001057600080fd5b50604051611d53380380611d53833981810160405281019061003291906100dc565b80600160006101000a81548173ffffffffffffffffffffffffffffffffffffffff021916908373ffffffffffffffffffffffffffffffffffffffff16021790555050610109565b600080fd5b600073ffffffffffffffffffffffffffffffffffffffff82169050919050565b60006100a98261007e565b9050919050565b6100b98161009e565b81146100c457600080fd5b50565b6000815190506100d6816100b0565b92915050565b6000602082840312156100f2576100f1610079565b5b6000610100848285016100c7565b91505092915050565b611c3b806101186000396000f3fe608060405234801561001057600080fd5b506004361061007d5760003560e01c80635df584651161005b5780635df58465146100d85780636aa71d18146100e25780637b47ec1a14610112578063e5e01c111461012e5761007d565b80630499bf97146100825780630f30cde0146100a05780632d854d4c146100bc575b600080fd5b61008a61014a565b60405161009791906110d3565b60405180910390f35b6100ba60048036038101906100b5919061127e565b61014f565b005b6100d660048036038101906100d191906112da565b6101f1565b005b6100e061048b565b005b6100fc60048036038101906100f79190611378565b61050f565b60405161010991906113b4565b60405180910390f35b61012c600480360381019061012791906113cf565b610527565b005b6101486004803603810190610143919061149d565b61069b565b005b603c81565b610159338361072b565b600160009054906101000a900473ffffffffffffffffffffffffffffffffffffffff1673ffffffffffffffffffffffffffffffffffffffff1663731133e933846001856040518563ffffffff1660e01b81526004016101bb94939291906115b9565b600060405180830381600087803b1580156101d557600080fd5b505af11580156101e9573d6000803e3d6000fd5b505050505050565b808203610233576040517f08c379a000000000000000000000000000000000000000000000000000000000815260040161022a90611662565b60405180910390fd5b60028211158015610245575060028111155b610284576040517f08c379a000000000000000000000000000000000000000000000000000000000815260040161027b906116ce565b60405180910390fd5b6000600160009054906101000a900473ffffffffffffffffffffffffffffffffffffffff1673ffffffffffffffffffffffffffffffffffffffff1662fdd58e33856040518363ffffffff1660e01b81526004016102e29291906116ee565b602060405180830381865afa1580156102ff573d6000803e3d6000fd5b505050506040513d601f19601f82011682018060405250810190610323919061172c565b11610363576040517f08c379a000000000000000000000000000000000000000000000000000000000815260040161035a906117a5565b60405180910390fd5b600160009054906101000a900473ffffffffffffffffffffffffffffffffffffffff1673ffffffffffffffffffffffffffffffffffffffff1663f5298aca338460016040518463ffffffff1660e01b81526004016103c3939291906117c5565b600060405180830381600087803b1580156103dd57600080fd5b505af11580156103f1573d6000803e3d6000fd5b50505050600160009054906101000a900473ffffffffffffffffffffffffffffffffffffffff1673ffffffffffffffffffffffffffffffffffffffff1663731133e9338360016040518463ffffffff1660e01b815260040161045593929190611822565b600060405180830381600087803b15801561046f57600080fd5b505af1158015610483573d6000803e3d6000fd5b505050505050565b600160009054906101000a900473ffffffffffffffffffffffffffffffffffffffff1673ffffffffffffffffffffffffffffffffffffffff166379ba50976040518163ffffffff1660e01b8152600401600060405180830381600087803b1580156104f557600080fd5b505af1158015610509573d6000803e3d6000fd5b50505050565b60006020528060005260406000206000915090505481565b6000600160009054906101000a900473ffffffffffffffffffffffffffffffffffffffff1673ffffffffffffffffffffffffffffffffffffffff1662fdd58e33846040518363ffffffff1660e01b81526004016105859291906116ee565b602060405180830381865afa1580156105a2573d6000803e3d6000fd5b505050506040513d601f19601f820116820180604052508101906105c6919061172c565b11610606576040517f08c379a00000000000000000000000000000000000000000000000000000000081526004016105fd906118b8565b60405180910390fd5b600160009054906101000a900473ffffffffffffffffffffffffffffffffffffffff1673ffffffffffffffffffffffffffffffffffffffff1663f5298aca338360016040518463ffffffff1660e01b8152600401610666939291906117c5565b600060405180830381600087803b15801561068057600080fd5b505af1158015610694573d6000803e3d6000fd5b5050505050565b600160009054906101000a900473ffffffffffffffffffffffffffffffffffffffff1673ffffffffffffffffffffffffffffffffffffffff166302fe5305826040518263ffffffff1660e01b81526004016106f6919061191c565b600060405180830381600087803b15801561071057600080fd5b505af1158015610724573d6000803e3d6000fd5b5050505050565b6000600160009054906101000a900473ffffffffffffffffffffffffffffffffffffffff1673ffffffffffffffffffffffffffffffffffffffff1662fdd58e8460006040518363ffffffff1660e01b815260040161078a929190611979565b602060405180830381865afa1580156107a7573d6000803e3d6000fd5b505050506040513d601f19601f820116820180604052508101906107cb919061172c565b90506000600160009054906101000a900473ffffffffffffffffffffffffffffffffffffffff1673ffffffffffffffffffffffffffffffffffffffff1662fdd58e8560016040518363ffffffff1660e01b815260040161082c9291906119a2565b602060405180830381865afa158015610849573d6000803e3d6000fd5b505050506040513d601f19601f8201168201806040525081019061086d919061172c565b90506000600160009054906101000a900473ffffffffffffffffffffffffffffffffffffffff1673ffffffffffffffffffffffffffffffffffffffff1662fdd58e8660026040518363ffffffff1660e01b81526004016108ce929190611a06565b602060405180830381865afa1580156108eb573d6000803e3d6000fd5b505050506040513d601f19601f8201168201806040525081019061090f919061172c565b9050600284116109f357603c60ff166000808773ffffffffffffffffffffffffffffffffffffffff1673ffffffffffffffffffffffffffffffffffffffff168152602001908152602001600020546109679190611a5e565b4210156109ab57846040517f894346920000000000000000000000000000000000000000000000000000000081526004016109a29190611a92565b60405180910390fd5b426000808773ffffffffffffffffffffffffffffffffffffffff1673ffffffffffffffffffffffffffffffffffffffff168152602001908152602001600020819055506110b0565b60038403610b7c576001831080610a0a5750600182105b15610a525784600060016040517fb589c555000000000000000000000000000000000000000000000000000000008152600401610a4993929190611aad565b60405180910390fd5b600160009054906101000a900473ffffffffffffffffffffffffffffffffffffffff1673ffffffffffffffffffffffffffffffffffffffff1663f5298aca86600060016040518463ffffffff1660e01b8152600401610ab393929190611aad565b600060405180830381600087803b158015610acd57600080fd5b505af1158015610ae1573d6000803e3d6000fd5b50505050600160009054906101000a900473ffffffffffffffffffffffffffffffffffffffff1673ffffffffffffffffffffffffffffffffffffffff1663f5298aca866001806040518463ffffffff1660e01b8152600401610b4593929190611ae4565b600060405180830381600087803b158015610b5f57600080fd5b505af1158015610b73573d6000803e3d6000fd5b505050506110af565b60048403610d05576001821080610b935750600181105b15610bdb5784600160026040517fb589c555000000000000000000000000000000000000000000000000000000008152600401610bd293929190611b1b565b60405180910390fd5b600160009054906101000a900473ffffffffffffffffffffffffffffffffffffffff1673ffffffffffffffffffffffffffffffffffffffff1663f5298aca866001806040518463ffffffff1660e01b8152600401610c3b93929190611ae4565b600060405180830381600087803b158015610c5557600080fd5b505af1158015610c69573d6000803e3d6000fd5b50505050600160009054906101000a900473ffffffffffffffffffffffffffffffffffffffff1673ffffffffffffffffffffffffffffffffffffffff1663f5298aca86600260016040518463ffffffff1660e01b8152600401610cce93929190611b52565b600060405180830381600087803b158015610ce857600080fd5b505af1158015610cfc573d6000803e3d6000fd5b505050506110ae565b60058403610e8f576001831080610d1c5750600181105b15610d645784600060026040517fb589c555000000000000000000000000000000000000000000000000000000008152600401610d5b93929190611b89565b60405180910390fd5b600160009054906101000a900473ffffffffffffffffffffffffffffffffffffffff1673ffffffffffffffffffffffffffffffffffffffff1663f5298aca86600060016040518463ffffffff1660e01b8152600401610dc593929190611aad565b600060405180830381600087803b158015610ddf57600080fd5b505af1158015610df3573d6000803e3d6000fd5b50505050600160009054906101000a900473ffffffffffffffffffffffffffffffffffffffff1673ffffffffffffffffffffffffffffffffffffffff1663f5298aca86600260016040518463ffffffff1660e01b8152600401610e5893929190611b52565b600060405180830381600087803b158015610e7257600080fd5b505af1158015610e86573d6000803e3d6000fd5b505050506110ad565b6001831080610e9e5750600182105b80610ea95750600181105b15610ef457846000600160026040517f7f6abaea000000000000000000000000000000000000000000000000000000008152600401610eeb9493929190611bc0565b60405180910390fd5b600160009054906101000a900473ffffffffffffffffffffffffffffffffffffffff1673ffffffffffffffffffffffffffffffffffffffff1663f5298aca86600060016040518463ffffffff1660e01b8152600401610f5593929190611aad565b600060405180830381600087803b158015610f6f57600080fd5b505af1158015610f83573d6000803e3d6000fd5b50505050600160009054906101000a900473ffffffffffffffffffffffffffffffffffffffff1673ffffffffffffffffffffffffffffffffffffffff1663f5298aca866001806040518463ffffffff1660e01b8152600401610fe793929190611ae4565b600060405180830381600087803b15801561100157600080fd5b505af1158015611015573d6000803e3d6000fd5b50505050600160009054906101000a900473ffffffffffffffffffffffffffffffffffffffff1673ffffffffffffffffffffffffffffffffffffffff1663f5298aca86600260016040518463ffffffff1660e01b815260040161107a93929190611b52565b600060405180830381600087803b15801561109457600080fd5b505af11580156110a8573d6000803e3d6000fd5b505050505b5b5b5b5050505050565b600060ff82169050919050565b6110cd816110b7565b82525050565b60006020820190506110e860008301846110c4565b92915050565b6000604051905090565b600080fd5b600080fd5b6000819050919050565b61111581611102565b811461112057600080fd5b50565b6000813590506111328161110c565b92915050565b600080fd5b600080fd5b6000601f19601f8301169050919050565b7f4e487b7100000000000000000000000000000000000000000000000000000000600052604160045260246000fd5b61118b82611142565b810181811067ffffffffffffffff821117156111aa576111a9611153565b5b80604052505050565b60006111bd6110ee565b90506111c98282611182565b919050565b600067ffffffffffffffff8211156111e9576111e8611153565b5b6111f282611142565b9050602081019050919050565b82818337600083830152505050565b600061122161121c846111ce565b6111b3565b90508281526020810184848401111561123d5761123c61113d565b5b6112488482856111ff565b509392505050565b600082601f83011261126557611264611138565b5b813561127584826020860161120e565b91505092915050565b60008060408385031215611295576112946110f8565b5b60006112a385828601611123565b925050602083013567ffffffffffffffff8111156112c4576112c36110fd565b5b6112d085828601611250565b9150509250929050565b600080604083850312156112f1576112f06110f8565b5b60006112ff85828601611123565b925050602061131085828601611123565b9150509250929050565b600073ffffffffffffffffffffffffffffffffffffffff82169050919050565b60006113458261131a565b9050919050565b6113558161133a565b811461136057600080fd5b50565b6000813590506113728161134c565b92915050565b60006020828403121561138e5761138d6110f8565b5b600061139c84828501611363565b91505092915050565b6113ae81611102565b82525050565b60006020820190506113c960008301846113a5565b92915050565b6000602082840312156113e5576113e46110f8565b5b60006113f384828501611123565b91505092915050565b600067ffffffffffffffff82111561141757611416611153565b5b61142082611142565b9050602081019050919050565b600061144061143b846113fc565b6111b3565b90508281526020810184848401111561145c5761145b61113d565b5b6114678482856111ff565b509392505050565b600082601f83011261148457611483611138565b5b813561149484826020860161142d565b91505092915050565b6000602082840312156114b3576114b26110f8565b5b600082013567ffffffffffffffff8111156114d1576114d06110fd565b5b6114dd8482850161146f565b91505092915050565b6114ef8161133a565b82525050565b6000819050919050565b6000819050919050565b600061152461151f61151a846114f5565b6114ff565b611102565b9050919050565b61153481611509565b82525050565b600081519050919050565b600082825260208201905092915050565b60005b83811015611574578082015181840152602081019050611559565b60008484015250505050565b600061158b8261153a565b6115958185611545565b93506115a5818560208601611556565b6115ae81611142565b840191505092915050565b60006080820190506115ce60008301876114e6565b6115db60208301866113a5565b6115e8604083018561152b565b81810360608301526115fa8184611580565b905095945050505050565b600082825260208201905092915050565b7f54726164696e6720666f722073616d6520746f6b656e00000000000000000000600082015250565b600061164c601683611605565b915061165782611616565b602082019050919050565b6000602082019050818103600083015261167b8161163f565b9050919050565b7f4f6e6c7920546f6b656e735b302d325d2063616e206265207472616465640000600082015250565b60006116b8601e83611605565b91506116c382611682565b602082019050919050565b600060208201905081810360008301526116e7816116ab565b9050919050565b600060408201905061170360008301856114e6565b61171060208301846113a5565b9392505050565b6000815190506117268161110c565b92915050565b600060208284031215611742576117416110f8565b5b600061175084828501611717565b91505092915050565b7f4e6f7420656e6f75676820746f20747261646500000000000000000000000000600082015250565b600061178f601383611605565b915061179a82611759565b602082019050919050565b600060208201905081810360008301526117be81611782565b9050919050565b60006060820190506117da60008301866114e6565b6117e760208301856113a5565b6117f4604083018461152b565b949350505050565b50565b600061180c600083611545565b9150611817826117fc565b600082019050919050565b600060808201905061183760008301866114e6565b61184460208301856113a5565b611851604083018461152b565b8181036060830152611862816117ff565b9050949350505050565b7f4e6f7468696e6720746f206275726e0000000000000000000000000000000000600082015250565b60006118a2600f83611605565b91506118ad8261186c565b602082019050919050565b600060208201905081810360008301526118d181611895565b9050919050565b600081519050919050565b60006118ee826118d8565b6118f88185611605565b9350611908818560208601611556565b61191181611142565b840191505092915050565b6000602082019050818103600083015261193681846118e3565b905092915050565b6000819050919050565b600061196361195e6119598461193e565b6114ff565b611102565b9050919050565b61197381611948565b82525050565b600060408201905061198e60008301856114e6565b61199b602083018461196a565b9392505050565b60006040820190506119b760008301856114e6565b6119c4602083018461152b565b9392505050565b6000819050919050565b60006119f06119eb6119e6846119cb565b6114ff565b611102565b9050919050565b611a00816119d5565b82525050565b6000604082019050611a1b60008301856114e6565b611a2860208301846119f7565b9392505050565b7f4e487b7100000000000000000000000000000000000000000000000000000000600052601160045260246000fd5b6000611a6982611102565b9150611a7483611102565b9250828201905080821115611a8c57611a8b611a2f565b5b92915050565b6000602082019050611aa760008301846114e6565b92915050565b6000606082019050611ac260008301866114e6565b611acf602083018561196a565b611adc604083018461152b565b949350505050565b6000606082019050611af960008301866114e6565b611b06602083018561152b565b611b13604083018461152b565b949350505050565b6000606082019050611b3060008301866114e6565b611b3d602083018561152b565b611b4a60408301846119f7565b949350505050565b6000606082019050611b6760008301866114e6565b611b7460208301856119f7565b611b81604083018461152b565b949350505050565b6000606082019050611b9e60008301866114e6565b611bab602083018561196a565b611bb860408301846119f7565b949350505050565b6000608082019050611bd560008301876114e6565b611be2602083018661196a565b611bef604083018561152b565b611bfc60608301846119f7565b9594505050505056fea26469706673582212205418085cf5ceb190e7a8c217a4c2e4d2582fa3f8194dfd37205f8dce3f15783064736f6c634300081e0033",
  "linkReferences": {},
  "deployedLinkReferences": {}
}