{
  "_format": "hh3-artifact-1",
  "contractName": "MyPriceFeed",
  "sourceName": "contracts/MyPriceFeed.sol",
  "abi": [
    {
      "inputs": [
        {
          "internalType": "address",
          "name": "feed",
          "type": "address"
        }
      ],
      "name": "InvalidAggregator",
      "type": "error"
    },
    {
      "inputs": [
        {
          "internalType": "address",
          "name": "feed",
          "type": "address"
        }
      ],
      "name": "InvalidFeedAddress",
      "type": "error"
    },
    {
      "inputs": [
        {
          "internalType": "address[]",
          "name": "feeds",
          "type": "address[]"
        }
      ],
      "name": "getBatchDataFeed",
      "outputs": [
        {
          "internalType": "int256[]",
          "name": "answers",
          "type": "int256[]"
        },
        {
          "internalType": "uint8[]",
          "name": "decimals",
          "type": "uint8[]"
        }
      ],
      "stateMutability": "view",
      "type": "function"
    },
    {
      "inputs": [
        {
          "internalType": "address",
          "name": "tokenFeed",
          "type": "address"
        }
      ],
      "name": "getDataFeed",
      "outputs": [
        {
          "internalType": "int256",
          "name": "answer",
          "type": "int256"
        },
        {
          "internalType": "uint8",
          "name": "dec",
          "type": "uint8"
        }
      ],
      "stateMutability": "view",
      "type": "function"
    }
  ],
  "bytecode": "0x6080604052348015600e575f5ffd5b506109d98061001c5f395ff3fe608060405234801561000f575f5ffd5b5060043610610034575f3560e01c8063344c833414610038578063fc97327014610069575b5f5ffd5b610052600480360381019061004d919061046d565b61009a565b6040516100609291906104cb565b60405180910390f35b610083600480360381019061007e9190610553565b610294565b60405161009192919061070c565b60405180910390f35b5f5f5f73ffffffffffffffffffffffffffffffffffffffff168373ffffffffffffffffffffffffffffffffffffffff160361010c57826040517f9f511c1c0000000000000000000000000000000000000000000000000000000081526004016101039190610750565b60405180910390fd5b5f8373ffffffffffffffffffffffffffffffffffffffff163b0361016757826040517f5c8bf34d00000000000000000000000000000000000000000000000000000000815260040161015e9190610750565b60405180910390fd5b5f8390508073ffffffffffffffffffffffffffffffffffffffff1663feaf968c6040518163ffffffff1660e01b815260040160a060405180830381865afa9250505080156101d357506040513d601f19601f820116820180604052508101906101d09190610805565b60015b61021457836040517f5c8bf34d00000000000000000000000000000000000000000000000000000000815260040161020b9190610750565b60405180910390fd5b8397505050505050828173ffffffffffffffffffffffffffffffffffffffff1663313ce5676040518163ffffffff1660e01b8152600401602060405180830381865afa158015610266573d5f5f3e3d5ffd5b505050506040513d601f19601f8201168201806040525081019061028a91906108a6565b9250925050915091565b6060805f8484905090505f81116102e0576040517f08c379a00000000000000000000000000000000000000000000000000000000081526004016102d79061092b565b60405180910390fd5b8067ffffffffffffffff8111156102fa576102f9610949565b5b6040519080825280602002602001820160405280156103285781602001602082028036833780820191505090505b5092508067ffffffffffffffff81111561034557610344610949565b5b6040519080825280602002602001820160405280156103735781602001602082028036833780820191505090505b5091505f5f90505b81811015610402576103b386868381811061039957610398610976565b5b90506020020160208101906103ae919061046d565b61009a565b8583815181106103c6576103c5610976565b5b602002602001018584815181106103e0576103df610976565b5b602002602001018260ff1660ff1681525082815250505080600101905061037b565b50509250929050565b5f5ffd5b5f5ffd5b5f73ffffffffffffffffffffffffffffffffffffffff82169050919050565b5f61043c82610413565b9050919050565b61044c81610432565b8114610456575f5ffd5b50565b5f8135905061046781610443565b92915050565b5f602082840312156104825761048161040b565b5b5f61048f84828501610459565b91505092915050565b5f819050919050565b6104aa81610498565b82525050565b5f60ff82169050919050565b6104c5816104b0565b82525050565b5f6040820190506104de5f8301856104a1565b6104eb60208301846104bc565b9392505050565b5f5ffd5b5f5ffd5b5f5ffd5b5f5f83601f840112610513576105126104f2565b5b8235905067ffffffffffffffff8111156105305761052f6104f6565b5b60208301915083602082028301111561054c5761054b6104fa565b5b9250929050565b5f5f602083850312156105695761056861040b565b5b5f83013567ffffffffffffffff8111156105865761058561040f565b5b610592858286016104fe565b92509250509250929050565b5f81519050919050565b5f82825260208201905092915050565b5f819050602082019050919050565b6105d081610498565b82525050565b5f6105e183836105c7565b60208301905092915050565b5f602082019050919050565b5f6106038261059e565b61060d81856105a8565b9350610618836105b8565b805f5b8381101561064857815161062f88826105d6565b975061063a836105ed565b92505060018101905061061b565b5085935050505092915050565b5f81519050919050565b5f82825260208201905092915050565b5f819050602082019050919050565b610687816104b0565b82525050565b5f610698838361067e565b60208301905092915050565b5f602082019050919050565b5f6106ba82610655565b6106c4818561065f565b93506106cf8361066f565b805f5b838110156106ff5781516106e6888261068d565b97506106f1836106a4565b9250506001810190506106d2565b5085935050505092915050565b5f6040820190508181035f83015261072481856105f9565b9050818103602083015261073881846106b0565b90509392505050565b61074a81610432565b82525050565b5f6020820190506107635f830184610741565b92915050565b5f69ffffffffffffffffffff82169050919050565b61078781610769565b8114610791575f5ffd5b50565b5f815190506107a28161077e565b92915050565b6107b181610498565b81146107bb575f5ffd5b50565b5f815190506107cc816107a8565b92915050565b5f819050919050565b6107e4816107d2565b81146107ee575f5ffd5b50565b5f815190506107ff816107db565b92915050565b5f5f5f5f5f60a0868803121561081e5761081d61040b565b5b5f61082b88828901610794565b955050602061083c888289016107be565b945050604061084d888289016107f1565b935050606061085e888289016107f1565b925050608061086f88828901610794565b9150509295509295909350565b610885816104b0565b811461088f575f5ffd5b50565b5f815190506108a08161087c565b92915050565b5f602082840312156108bb576108ba61040b565b5b5f6108c884828501610892565b91505092915050565b5f82825260208201905092915050565b7f4e6f2070726963652066656564000000000000000000000000000000000000005f82015250565b5f610915600d836108d1565b9150610920826108e1565b602082019050919050565b5f6020820190508181035f83015261094281610909565b9050919050565b7f4e487b71000000000000000000000000000000000000000000000000000000005f52604160045260245ffd5b7f4e487b71000000000000000000000000000000000000000000000000000000005f52603260045260245ffdfea26469706673582212208b66c1b3320c1ca3fa541dcf27c02657d3a99e493f2d9b1702557a93d533a97c64736f6c634300081c0033",
  "linkReferences": {},
  "deployedLinkReferences": {},
  "immutableReferences": {},
  "inputSourceName": "project/contracts/MyPriceFeed.sol",
  "buildInfoId": "solc-0_8_28-b63d94dc5f0d27cb9ed86ac78021cfd9f6700534"
}