{
  "_format": "hh3-artifact-1",
  "contractName": "MyScan",
  "sourceName": "contracts/MyScan.sol",
  "abi": [
    {
      "inputs": [
        {
          "internalType": "contract MyPriceFeed",
          "name": "_priceFeed",
          "type": "address"
        }
      ],
      "stateMutability": "nonpayable",
      "type": "constructor"
    },
    {
      "anonymous": false,
      "inputs": [
        {
          "indexed": true,
          "internalType": "address",
          "name": "payer",
          "type": "address"
        },
        {
          "indexed": true,
          "internalType": "address",
          "name": "payee",
          "type": "address"
        },
        {
          "indexed": true,
          "internalType": "address",
          "name": "asset",
          "type": "address"
        },
        {
          "indexed": false,
          "internalType": "uint256",
          "name": "amount",
          "type": "uint256"
        },
        {
          "indexed": false,
          "internalType": "string",
          "name": "memo",
          "type": "string"
        },
        {
          "indexed": false,
          "internalType": "address",
          "name": "feed",
          "type": "address"
        },
        {
          "indexed": false,
          "internalType": "int256",
          "name": "price",
          "type": "int256"
        },
        {
          "indexed": false,
          "internalType": "uint8",
          "name": "priceDecimals",
          "type": "uint8"
        },
        {
          "indexed": false,
          "internalType": "uint256",
          "name": "updatedAt",
          "type": "uint256"
        }
      ],
      "name": "PaymentStamped",
      "type": "event"
    },
    {
      "inputs": [],
      "name": "priceFeed",
      "outputs": [
        {
          "internalType": "contract MyPriceFeed",
          "name": "",
          "type": "address"
        }
      ],
      "stateMutability": "view",
      "type": "function"
    },
    {
      "inputs": [
        {
          "internalType": "address",
          "name": "to",
          "type": "address"
        },
        {
          "internalType": "address",
          "name": "feed",
          "type": "address"
        },
        {
          "internalType": "string",
          "name": "memo",
          "type": "string"
        }
      ],
      "name": "sendEth",
      "outputs": [],
      "stateMutability": "payable",
      "type": "function"
    },
    {
      "inputs": [
        {
          "internalType": "address",
          "name": "token",
          "type": "address"
        },
        {
          "internalType": "address",
          "name": "to",
          "type": "address"
        },
        {
          "internalType": "uint256",
          "name": "amount",
          "type": "uint256"
        },
        {
          "internalType": "address",
          "name": "feed",
          "type": "address"
        },
        {
          "internalType": "string",
          "name": "memo",
          "type": "string"
        }
      ],
      "name": "transferERC20",
      "outputs": [],
      "stateMutability": "nonpayable",
      "type": "function"
    }
  ],
  "bytecode": "0x60a060405234801561000f575f5ffd5b50604051610e90380380610e90833981810160405281019061003191906100da565b8073ffffffffffffffffffffffffffffffffffffffff1660808173ffffffffffffffffffffffffffffffffffffffff168152505050610105565b5f5ffd5b5f73ffffffffffffffffffffffffffffffffffffffff82169050919050565b5f6100988261006f565b9050919050565b5f6100a98261008e565b9050919050565b6100b98161009f565b81146100c3575f5ffd5b50565b5f815190506100d4816100b0565b92915050565b5f602082840312156100ef576100ee61006b565b5b5f6100fc848285016100c6565b91505092915050565b608051610d6661012a5f395f818160a70152818161017d015261043c0152610d665ff3fe608060405260043610610033575f3560e01c8063741bef1a14610037578063c995a8f014610061578063d560dfac1461007d575b5f5ffd5b348015610042575f5ffd5b5061004b6100a5565b604051610058919061069d565b60405180910390f35b61007b6004803603810190610076919061075a565b6100c9565b005b348015610088575f5ffd5b506100a3600480360381019061009e91906107fe565b61034f565b005b7f000000000000000000000000000000000000000000000000000000000000000081565b5f73ffffffffffffffffffffffffffffffffffffffff168473ffffffffffffffffffffffffffffffffffffffff1603610137576040517f08c379a000000000000000000000000000000000000000000000000000000000815260040161012e906108ee565b60405180910390fd5b5f3411610179576040517f08c379a000000000000000000000000000000000000000000000000000000000815260040161017090610956565b60405180910390fd5b5f5f7f000000000000000000000000000000000000000000000000000000000000000073ffffffffffffffffffffffffffffffffffffffff1663344c8334866040518263ffffffff1660e01b81526004016101d49190610983565b6040805180830381865afa1580156101ee573d5f5f3e3d5ffd5b505050506040513d601f19601f820116820180604052508101906102129190610a05565b915091505f8673ffffffffffffffffffffffffffffffffffffffff163460405161023b90610a70565b5f6040518083038185875af1925050503d805f8114610275576040519150601f19603f3d011682016040523d82523d5f602084013e61027a565b606091505b50509050806102be576040517f08c379a00000000000000000000000000000000000000000000000000000000081526004016102b590610ace565b60405180910390fd5b5f73ffffffffffffffffffffffffffffffffffffffff168773ffffffffffffffffffffffffffffffffffffffff163373ffffffffffffffffffffffffffffffffffffffff167f797748fbacb803d56b1db8e53002f3a4b6940fb744bda3032340a5b1d3c872063489898c8a8a4260405161033e9796959493929190610b63565b60405180910390a450505050505050565b5f73ffffffffffffffffffffffffffffffffffffffff168673ffffffffffffffffffffffffffffffffffffffff16141580156103b757505f73ffffffffffffffffffffffffffffffffffffffff168573ffffffffffffffffffffffffffffffffffffffff1614155b6103f6576040517f08c379a00000000000000000000000000000000000000000000000000000000081526004016103ed906108ee565b60405180910390fd5b5f8411610438576040517f08c379a000000000000000000000000000000000000000000000000000000000815260040161042f90610c15565b60405180910390fd5b5f5f7f000000000000000000000000000000000000000000000000000000000000000073ffffffffffffffffffffffffffffffffffffffff1663344c8334866040518263ffffffff1660e01b81526004016104939190610983565b6040805180830381865afa1580156104ad573d5f5f3e3d5ffd5b505050506040513d601f19601f820116820180604052508101906104d19190610a05565b915091508773ffffffffffffffffffffffffffffffffffffffff166323b872dd3389896040518463ffffffff1660e01b815260040161051293929190610c33565b6020604051808303815f875af115801561052e573d5f5f3e3d5ffd5b505050506040513d601f19601f820116820180604052508101906105529190610c9d565b610591576040517f08c379a000000000000000000000000000000000000000000000000000000000815260040161058890610d12565b60405180910390fd5b8773ffffffffffffffffffffffffffffffffffffffff168773ffffffffffffffffffffffffffffffffffffffff163373ffffffffffffffffffffffffffffffffffffffff167f797748fbacb803d56b1db8e53002f3a4b6940fb744bda3032340a5b1d3c872068988888b8989426040516106119796959493929190610b63565b60405180910390a45050505050505050565b5f73ffffffffffffffffffffffffffffffffffffffff82169050919050565b5f819050919050565b5f61066561066061065b84610623565b610642565b610623565b9050919050565b5f6106768261064b565b9050919050565b5f6106878261066c565b9050919050565b6106978161067d565b82525050565b5f6020820190506106b05f83018461068e565b92915050565b5f5ffd5b5f5ffd5b5f6106c882610623565b9050919050565b6106d8816106be565b81146106e2575f5ffd5b50565b5f813590506106f3816106cf565b92915050565b5f5ffd5b5f5ffd5b5f5ffd5b5f5f83601f84011261071a576107196106f9565b5b8235905067ffffffffffffffff811115610737576107366106fd565b5b60208301915083600182028301111561075357610752610701565b5b9250929050565b5f5f5f5f60608587031215610772576107716106b6565b5b5f61077f878288016106e5565b9450506020610790878288016106e5565b935050604085013567ffffffffffffffff8111156107b1576107b06106ba565b5b6107bd87828801610705565b925092505092959194509250565b5f819050919050565b6107dd816107cb565b81146107e7575f5ffd5b50565b5f813590506107f8816107d4565b92915050565b5f5f5f5f5f5f60a08789031215610818576108176106b6565b5b5f61082589828a016106e5565b965050602061083689828a016106e5565b955050604061084789828a016107ea565b945050606061085889828a016106e5565b935050608087013567ffffffffffffffff811115610879576108786106ba565b5b61088589828a01610705565b92509250509295509295509295565b5f82825260208201905092915050565b7f42616420616464720000000000000000000000000000000000000000000000005f82015250565b5f6108d8600883610894565b91506108e3826108a4565b602082019050919050565b5f6020820190508181035f830152610905816108cc565b9050919050565b7f4e6f206574682073656e740000000000000000000000000000000000000000005f82015250565b5f610940600b83610894565b915061094b8261090c565b602082019050919050565b5f6020820190508181035f83015261096d81610934565b9050919050565b61097d816106be565b82525050565b5f6020820190506109965f830184610974565b92915050565b5f819050919050565b6109ae8161099c565b81146109b8575f5ffd5b50565b5f815190506109c9816109a5565b92915050565b5f60ff82169050919050565b6109e4816109cf565b81146109ee575f5ffd5b50565b5f815190506109ff816109db565b92915050565b5f5f60408385031215610a1b57610a1a6106b6565b5b5f610a28858286016109bb565b9250506020610a39858286016109f1565b9150509250929050565b5f81905092915050565b50565b5f610a5b5f83610a43565b9150610a6682610a4d565b5f82019050919050565b5f610a7a82610a50565b9150819050919050565b7f5478206661696c656400000000000000000000000000000000000000000000005f82015250565b5f610ab8600983610894565b9150610ac382610a84565b602082019050919050565b5f6020820190508181035f830152610ae581610aac565b9050919050565b610af5816107cb565b82525050565b828183375f83830152505050565b5f601f19601f8301169050919050565b5f610b248385610894565b9350610b31838584610afb565b610b3a83610b09565b840190509392505050565b610b4e8161099c565b82525050565b610b5d816109cf565b82525050565b5f60c082019050610b765f83018a610aec565b8181036020830152610b8981888a610b19565b9050610b986040830187610974565b610ba56060830186610b45565b610bb26080830185610b54565b610bbf60a0830184610aec565b98975050505050505050565b7f6e6f20616d6f756e7400000000000000000000000000000000000000000000005f82015250565b5f610bff600983610894565b9150610c0a82610bcb565b602082019050919050565b5f6020820190508181035f830152610c2c81610bf3565b9050919050565b5f606082019050610c465f830186610974565b610c536020830185610974565b610c606040830184610aec565b949350505050565b5f8115159050919050565b610c7c81610c68565b8114610c86575f5ffd5b50565b5f81519050610c9781610c73565b92915050565b5f60208284031215610cb257610cb16106b6565b5b5f610cbf84828501610c89565b91505092915050565b7f5472616e73666572206661696c000000000000000000000000000000000000005f82015250565b5f610cfc600d83610894565b9150610d0782610cc8565b602082019050919050565b5f6020820190508181035f830152610d2981610cf0565b905091905056fea26469706673582212200e01575012fd4eba368845adc578570df2b4540f1e8eb663882afe063c487abe64736f6c634300081c0033",
  "linkReferences": {},
  "deployedLinkReferences": {},
  "immutableReferences": {
    "1142": [
      {
        "length": 32,
        "start": 167
      },
      {
        "length": 32,
        "start": 381
      },
      {
        "length": 32,
        "start": 1084
      }
    ]
  },
  "inputSourceName": "project/contracts/MyScan.sol",
  "buildInfoId": "solc-0_8_28-b63d94dc5f0d27cb9ed86ac78021cfd9f6700534"
}